:020000040800F2
:1000000000000220C1120008B5110008BB11000851
:10001000C1110008C7110008CD1100080000000040
:10002000000000000000000000000000D3110008E4
:10003000E111000800000000EF110008FD110008A8
:100040001113000811130008111300081113000800
:1000500011130008111300081113000811130008F0
:1000600011130008111300081113000811130008E0
:1000700011130008111300081113000811130008D0
:1000800011130008111300081113000800000000EC
:100090000000000000000000000000001113000834
:1000A00011130008111300081113000811130008A0
:1000B0001113000809120008111300081113000899
:1000C0001113000811130008111300081113000880
:1000D000111300081113000811130008000000009C
:1000E000111300081113000811130008000000008C
:1000F00000000000000000000000000011130008D4
:10010000000000001113000811130008111300086B
:1001100000000000000000000000000000000000DF
:10012000111300081113000811130008111300081F
:100130001113000800000000000000000000000093
:100140000000000000000000000000001D12000878
:1001500011130008111300081113000811130008EF
:100160001113000811130008000000000000000037
:10017000000000000000000000000000000000007F
:100180000000000011130008000000000000000043
:0801900011130008111300080F
:1001980010B5054C237833B9044B13B10448AFF3B9
:1001A80000800123237010BD88000020000000009B
:1001B800C492000808B5034B1BB103490348AFF3C9
:1001C800008008BD000000008C000020C4920008D8
:1001D80053B94AB9002908BF00281CBF4FF0FF31A6
:1001E8004FF0FF3000F070B9ADF1080C6DE904CEA6
:1001F80000F006F8DDF804E0DDE9022304B07047FA
:100208002DE9F047089E0D4604460F46002B4AD1BB
:100218008A42944665D9B2FA82F343B102FA03FCE2
:10022800C3F120029F4020FA02F217439C404FEA94
:100238001C4E1FFA8CF5B7FBFEF1220C0EFB117752
:1002480042EA074201FB05F090420AD91CEB020280
:1002580001F1FF3780F01C81904240F21981023988
:100268006244121AA4B2B2FBFEF00EFB102244EA5A
:10027800024400FB05F5A5420AD91CEB040400F171
:10028800FF3280F00781A54240F2048164440238BD
:1002980040EA0140641B00211EB1DC400023C6E98E
:1002A8000043BDE8F0878B4208D9002E00F0ED80AE
:1002B8000021C6E900050846BDE8F087B3FA83F1D6
:1002C800002949D1AB4202D3824200F2F880841A55
:1002D80065EB030201201746002EE2D0C6E900476D
:1002E800DFE702B9FFDEB2FA82F3002B40F090801C
:1002F8008A1A4FEA1C471FFA8CFE0121B2FBF7F558
:1003080007FB1520220C42EA00420EFB05F0904242
:1003180008D91CEB020205F1FF3802D2904200F224
:10032800CB804546121AA4B2B2FBF7F007FB1022A5
:1003380044EA02440EFB00FEA64508D91CEB04045F
:1003480000F1FF3202D2A64500F2BB801046A4EBB2
:100358000E0440EA05409FE7C1F120078B4022FACE
:1003680007FC4CEA030C05FA01F420FA07F3FD40F8
:100378004FEA1C492343B5FBF9F81FFA8CFE09FB29
:1003880018551C0C44EA054408FB0EF5A54202FA70
:1003980001F200FA01F00BD91CEB040408F1FF3A52
:1003A80080F08880A54240F28580A8F10208644464
:1003B800641B9DB2B4FBF9F309FB134445EA0444FA
:1003C80003FB0EFEA64508D91CEB040403F1FF3518
:1003D8006CD2A6456AD9023B644443EA0843A3FBAE
:1003E8000295A4EB0E04AC42C846AE4656D353D091
:1003F80056B1B0EB080264EB0E0404FA07F7CA40E2
:10040800CC401743C6E9007418460021BDE8F087C0
:10041800C3F1200102FA03FC20FA01F225FA01F1E6
:100428009D402A434FEA1C471FFA8CFEB1FBF7F0A8
:1004380007FB1015110C41EA054100FB0EF58D4232
:1004480004FA03F408D91CEB010100F1FF382FD29C
:100458008D422DD902386144491B92B2B1FBF7F5A0
:1004680007FB151142EA014205FB0EF1914208D93A
:100478001CEB020205F1FF3816D2914214D9023D55
:100488006244521A45EA004138E73146304608E7E7
:100498003946E6E61046FBE64845A9D2B9EB02081C
:1004A80065EB0C0E013BA3E74546EAE72B4694E7CC
:1004B8004046D1E7D0467BE7023D624432E7084632
:1004C8000AE76444023842E7704700BF80B485B049
:1004D80000AF0346FB71FB790C4A32F81330FB81FD
:1004E8000B4B1B68FA895A63094B1B68FA899A6394
:1004F800074B1B68FA89DA63054B1B68FA891A648B
:1005080000BF1437BD465DF8047B7047E0920008D1
:100518007002002080B582B000AF78607B681B68ED
:10052800134A934220D1134B1B680133114A1360BD
:10053800104B1A68104B1B689A4206D801224FF4D8
:1005480020410E4801F00EFA05E000224FF4204148
:100558000A4801F007FA074B1A68094B1B689A42C8
:1005680002D3044B00221A6000BF0837BD4680BD85
:1005780000040040BC020020C0020020000C024021
:100588000400002080B582B000AF00F0BFFE00F08C
:1005980093F800F0F9F800F0FDFA00F015F900F012
:1005A80041F900F06DF900F09BF908F033FA00F01A
:1005B8001FFA00F06BFA00F0C9F9344804F086FA23
:1005C800334804F0DDFA334804F080FA00212F485C
:1005D80004F092FB04212D4804F08EFB08212B48DF
:1005E80004F08AFB0C21294804F086FB1C2001F04A
:1005F8001AF8294B0A221A64264B1B685B6A7B602F
:10060800264B1B687A689A4225D0244A7B68136077
:10061800234B1B78002B0DD0224B1B780133DAB209
:10062800204B1A701F4B1B78082B14D91C4B002227
:100638001A7010E01B4B1B78002B05D0194B1B7848
:10064800013BDAB2174B1A70164B1B78002B02D1FC
:10065800134B01221A70134B1B781846FFF736FF0D
:10066800104B1B781A46104B33F812305B089BB2BC
:100678001A460E4B1A600E4B1A680C4B1B68D31A9D
:100688000C4A136008F0ECF9B6E700BF70020020CE
:1006980028020020E001002000080040C4020020D9
:1006A80008000020B8020020E0920008C0020020E4
:1006B800040000200000002080B594B000AF07F1CE
:1006C800200330220021184608F068FD07F10C03CA
:1006D80000221A605A609A60DA601A610023BB60CF
:1006E800274B1B6C264A43F080531364244B1B6C26
:1006F80003F08053BB60BB6800237B60214B1B6801
:10070800204A43F4404313601E4B1B6803F44043E4
:100718007B607B6801233B624FF480337B6202235A
:10072800BB634FF48003FB6304233B64A8237B640F
:100738000423BB640723FB6407F12003184603F076
:1007480019FB0346002B01D000F0F0FA0F23FB60E1
:1007580002233B6100237B614FF48053BB6100237C
:10076800FB6107F10C030221184603F07BFD0346E9
:10077800002B01D000F0DAFA00BF5037BD4680BD2B
:10078800003802400070004080B586B000AF3B469C
:1007980000221A605A609A60DA601A615A6101236D
:1007A8003B60C823BB6005237B600223FB603B469C
:1007B800184603F063FF0346002B01D000F0B6FA99
:1007C80000BF1837BD4680BD80B500AF124B134A35
:1007D8001A60114B124A5A600F4B00229A600E4B56
:1007E8000022DA600C4B4FF480421A610A4B002257
:1007F8005A61094B00229A61074B0022DA61064BC5
:1008080000221A62044802F0D1FC0346002B01D0F2
:1008180000F08CFA00BF80BDA40000200054004006
:10082800A086010080B500AF124B134A1A60114B25
:100838004FF400725A600F4B00229A600D4B002251
:10084800DA600C4B00221A610A4B0C4A5A61094BB8
:1008580000229A61074B0022DA61064B01221A62D4
:10086800044802F0E7FD0346002B01D000F05EFAD1
:1008780000BF80BDF800002000380040007701006C
:1008880080B500AF134B144A1A60124B4FF4007234
:100898005A60104B00229A600E4B0022DA600D4B12
:1008A8004FF400721A610B4B0C4A5A61094B002233
:1008B8009A61084B0022DA61064B00221A62054849
:1008C80002F0B8FD0346002B01D000F02FFA00BF5C
:1008D80080BD00BF40010020003C004000770100BF
:1008E80080B500AF174B184A1A60164B4FF4827246
:1008F8005A60144B00229A60124B0022DA60114BA6
:1009080000221A610F4B00225A610E4B4FF40072FD
:100918009A610C4B0022DA610A4B00221A62094BD9
:1009280000225A62074B00229A62064B0A22DA62B8
:10093800044803F0F3FF0346002B01D000F0F6F95A
:1009480000BF80BD880100200030014080B586B01E
:1009580000AF07F1080300221A605A609A60DA6053
:100968003B4600221A605A60204B4FF080421A60C2
:100978001E4B00225A601D4B00229A601B4B4FF001
:10098800FF32DA60194B00221A61184B00229A6173
:10099800164804F04CF80346002B01D000F0C6F9C5
:1009A8004FF40053BB600023FB6000233B6100232E
:1009B8007B6107F1080319460C4804F017FC03464D
:1009C800002B01D000F0B2F900233B6000237B60CC
:1009D8003B461946054804F0C5FF0346002B01D0E5
:1009E80000F0A4F900BF1837BD4680BDE001002023
:1009F80080B586B000AF07F1080300221A605A607C
:100A08009A60DA603B4600221A605A601D4B1E4A03
:100A18001A601C4B01225A601A4B00229A60194B2B
:100A28004FF49672DA60174B00221A61154B0022B8
:100A38009A61144803F0FBFF0346002B01D000F035
:100A480075F94FF48053BB6007F1080319460D4848
:100A580004F0CCFB0346002B01D000F067F900231B
:100A68003B6000237B603B461946064804F07AFF4A
:100A78000346002B01D000F059F900BF1837BD46D6
:100A880080BD00BF280200200004004080B58EB061
:100A980000AF07F1280300221A605A609A60DA60F2
:100AA80007F1200300221A605A603B1D00221A60D9
:100AB8005A609A60DA601A615A619A61334B344A13
:100AC8001A60324B53225A60304B00229A602F4BE7
:100AD80040F2E732DA602D4B00221A612B4B0022DC
:100AE8009A612A4803F0A3FF0346002B01D000F0C7
:100AF8001DF94FF48053BB6207F1280319462348B8
:100B080004F074FB0346002B01D000F00FF91F48D6
:100B180004F098F80346002B01D000F007F90023F1
:100B28003B6200237B6207F120031946174804F053
:100B380019FF0346002B01D000F0F8F860237B6012
:100B48006423BB600023FB6000237B613B1D002204
:100B580019460E4804F088FA0346002B01D000F02D
:100B6800E5F84FF4C873BB603B1D082219460748D7
:100B780004F07AFA0346002B01D000F0D7F80348B6
:100B880000F0DAFA00BF3837BD4680BD7002002099
:100B98000008004080B58CB000AF07F11C030022AC
:100BA8001A605A609A60DA601A610023BB615B4B75
:100BB8001B6B5A4A43F010031363584B1B6B03F02B
:100BC8001003BB61BB6900237B61544B1B6B534A09
:100BD80043F004031363514B1B6B03F004037B6165
:100BE8007B6900233B614D4B1B6B4C4A43F08003F0
:100BF80013634A4B1B6B03F080033B613B69002383
:100C0800FB60464B1B6B454A43F001031363434BA0
:100C18001B6B03F00103FB60FB680023BB603F4BC9
:100C28001B6B3E4A43F0020313633C4B1B6B03F000
:100C38000203BB60BB6800237B60384B1B6B374AE1
:100C480043F008031363354B1B6B03F008037B6009
:100C58007B6800220821324800F084FE012201212D
:100C6800304800F07FFE00224AF210012E4800F0C2
:100C780079FE0423FB6100233B6200237B6207F1BA
:100C88001C031946264800F0E9FC0823FB610123F0
:100C98003B6200237B620023BB6207F11C031946F9
:100CA8001F4800F0DBFC3223FB614FF490133B62DA
:100CB80000237B6207F11C031946194800F0CEFC9B
:100CC8000123FB6101233B6200237B620023BB629B
:100CD80007F11C031946134800F0C0FC4AF2100340
:100CE800FB6101233B6200237B620023BB6207F1A7
:100CF8001C0319460C4800F0B1FC2023FB610023BB
:100D08003B6200237B6207F11C031946064800F08A
:100D1800A5FC00BF3037BD4680BD00BF003802408B
:100D28000010024000080240000C024080B400AFEE
:100D380072B600BFFEE7000080B582B000AF0023A6
:100D48007B60104B5B6C0F4A43F4804353640D4B3C
:100D58005B6C03F480437B607B6800233B60094B3A
:100D68001B6C084A43F080531364064B1B6C03F05A
:100D780080533B603B68072000F02EFC00BF08371B
:100D8800BD4680BD0038024080B58AB000AF7860AB
:100D980007F1140300221A605A609A60DA601A6137
:100DA8007B681B68194A93422CD100233B61184B7E
:100DB8001B6B174A43F002031363154B1B6B03F0BD
:100DC80002033B613B694FF410737B611223BB61E3
:100DD8000123FB6100233B6204237B6207F11403B8
:100DE80019460C4800F03AFC0023FB60084B1B6CCA
:100DF800074A43F400131364054B1B6C03F40013F8
:100E0800FB60FB6800BF2837BD4680BD005400402A
:100E1800003802400004024080B58EB000AF786010
:100E280007F1240300221A605A609A60DA601A6196
:100E38007B681B68594A93425BD100233B62584B3D
:100E48001B6C574A43F480431364554B1B6C03F4E3
:100E580080433B623B6A0023FB61514B1B6B504A4A
:100E680043F0040313634E4B1B6B03F00403FB6155
:100E7800FB690023BB614A4B1B6B494A43F00203E1
:100E88001363474B1B6B03F00203BB61BB6904236D
:100E98007B620223BB620023FB6200233B630623C1
:100EA8007B6307F1240319463E4800F0D7FB08236B
:100EB8007B620223BB620023FB6200233B630523A2
:100EC8007B6307F124031946364800F0C7FB4FF44B
:100ED800A0537B620223BB620023FB6200233B63B7
:100EE80005237B6307F1240319462F4800F0B6FB5E
:100EF8004FE07B681B682D4A93424AD100237B61EF
:100F0800274B1B6C264A43F400431364244B1B6C89
:100F180003F400437B617B6900233B61204B1B6B1F
:100F28001F4A43F0010313631D4B1B6B03F00103BE
:100F38003B613B690023FB60194B1B6B184A43F06C
:100F480004031363164B1B6B03F00403FB60FB687D
:100F580010237B620223BB620023FB6200233B63F6
:100F680006237B6307F124031946114800F076FB3A
:100F78004FF4A4537B620223BB620023FB6200236D
:100F88003B6306237B6307F124031946054800F0F9
:100F980065FB00BF3837BD4680BD00BF0038004044
:100FA800003802400008024000040240003C0040B3
:100FB8000000024080B58AB000AF786007F11403E2
:100FC80000221A605A609A60DA601A617B681B68AE
:100FD800194A93422BD100233B61184B5B6C174A8B
:100FE80043F480535364154B5B6C03F480533B61AB
:100FF8003B690023FB60114B1B6B104A43F0010354
:1010080013630E4B1B6B03F00103FB60FB68E023CB
:101018007B610223BB610023FB6103233B62052341
:101028007B6207F114031946054800F017FB00BF5F
:101038002837BD4680BD00BF00300140003802405F
:101048000000024080B58CB000AF786007F11C0347
:1010580000221A605A609A60DA601A617B681B681D
:10106800B3F1804F2CD10023BB612F4B1B6C2E4A50
:1010780043F0010313642C4B1B6C03F00103BB61A9
:10108800BB6900237B61284B1B6B274A43F0010394
:101098001363254B1B6B03F001037B617B69012301
:1010A800FB6102233B6200237B620023BB620123B6
:1010B800FB6207F11C0319461C4800F0CFFA2EE02A
:1010C8007B681B681A4A934216D100233B61164B72
:1010D8001B6C154A43F002031364134B1B6C03F09B
:1010E80002033B613B69002200211D2000F07FFACA
:1010F8001D2000F098FA12E07B681B680D4A9342A5
:101108000DD10023FB60084B1B6C074A43F0040316
:101118001364054B1B6C03F00403FB60FB6800BF02
:101128003037BD4680BD00BF003802400000024095
:10113800000400400008004080B588B000AF786027
:1011480007F10C0300221A605A609A60DA601A618B
:101158007B681B68124A93421ED10023BB60114B67
:101168001B6B104A43F0080313630E4B1B6B03F011
:101178000803BB60BB684FF4A043FB6002233B61DC
:1011880000237B610023BB610223FB6107F10C0391
:101198001946054800F062FA00BF2037BD4680BDF9
:1011A8000008004000380240000C024080B400AF44
:1011B800FEE780B400AFFEE780B400AFFEE780B47E
:1011C80000AFFEE780B400AFFEE780B400AF00BF19
:1011D800BD465DF8047B704780B400AF00BFBD46D4
:1011E8005DF8047B704780B400AF00BFBD465DF872
:1011F800047B704780B500AF00F0DAF800BF80BD0F
:1012080080B500AF024803F027FE00BF80BD00BFD5
:101218002802002080B500AF024800F027FE00BF7A
:1012280080BD00BFAC06002080B586B000AF7860F6
:10123800144A154BD31A7B617B693B61134B1B68BE
:10124800002B02D1114B124A1A60104B1A687B68A6
:1012580013443A699A4207D207F0B8FF03460C22B2
:101268001A604FF0FF3309E0084B1B68FB60074B1F
:101278001A687B681344054A1360FB6818461837D8
:10128800BD4680BD0000022000040000C802002006
:10129800F80A002080B400AF064BD3F88830054A1E
:1012A80043F47003C2F8883000BFBD465DF8047B84
:1012B800704700BF00ED00E0DFF834D00D480E495C
:1012C8000E4A002302E0D458C4500433C4188C4298
:1012D800F9D30B4A0B4C002301E013600432A242FD
:1012E800FBD3FFF7D7FF07F077FFFFF74BF97047FE
:1012F8000000022000000020880000201C93000845
:1013080088000020F80A0020FEE7000080B500AF42
:101318000E4B1B680D4A43F4007313600B4B1B689C
:101328000A4A43F480631360084B1B68074A43F476
:1013380080731360032000F04FF9002000F008F8D4
:10134800FFF7FAFC0023184680BD00BF003C0240AE
:1013580080B582B000AF7860124B1A68124B1B78C8
:1013680019464FF47A73B3FBF1F3B2FBF3F3184663
:1013780000F067F90346002B01D001230EE07B68DB
:101388000F2B0AD8002279684FF0FF3000F02FF9B0
:10139800064A7B681360002300E0012318460837DB
:1013A800BD4680BD0C000020140000201000002065
:1013B80080B400AF064B1B781A46064B1B681344D3
:1013C800044A136000BFBD465DF8047B704700BF48
:1013D80014000020CC02002080B400AF034B1B682F
:1013E8001846BD465DF8047B704700BFCC0200205C
:1013F80080B584B000AF7860FFF7EEFFB8607B6817
:10140800FB60FB68B3F1FF3F05D00A4B1B781A4617
:10141800FB681344FB6000BFFFF7DEFF0246BB68B2
:10142800D31AFA689A42F7D800BF00BF1037BD46F2
:1014380080BD00BF1400002080B485B000AF786084
:101448007B6803F00703FB600C4BDB68BB60BA6882
:101458004FF6FF031340BB60FB681A02BB681343D7
:1014680043F0BF6343F40033BB60044ABB68D360F6
:1014780000BF1437BD465DF8047B704700ED00E0FF
:1014880080B400AF044BDB681B0A03F0070318465F
:10149800BD465DF8047B704700ED00E080B483B082
:1014A80000AF0346FB7197F90730002B0BDBFB7984
:1014B80003F01F02074997F907305B09012000FA7A
:1014C80002F241F8232000BF0C37BD465DF8047BCB
:1014D800704700BF00E100E080B483B000AF03466E
:1014E8003960FB7197F90730002B0ADB3B68DAB2E9
:1014F8000C4997F907301201D2B20B4483F8002344
:101508000AE03B68DAB20849FB7903F00F03043BB1
:101518001201D2B20B441A7600BF0C37BD465DF8F3
:10152800047B704700E100E000ED00E080B489B082
:1015380000AFF860B9607A60FB6803F00703FB61ED
:10154800FB69C3F10703042B28BF0423BB61FB69B4
:101558000433062B02D9FB69033B00E000237B61BF
:101568004FF0FF32BB6902FA03F3DA43BB681A4053
:101578007B699A404FF0FF317B6901FA03F3D94345
:101588007B680B40134318462437BD465DF8047B3F
:101598007047000080B582B000AF78607B68013B7F
:1015A800B3F1807F01D301230FE00A4A7B68013B36
:1015B80053600F214FF0FF30FFF78EFF054B0022DD
:1015C8009A60044B07221A60002318460837BD4664
:1015D80080BD00BF10E000E080B582B000AF786049
:1015E8007868FFF729FF00BF0837BD4680BD80B582
:1015F80086B000AF0346B9607A60FB7300237B6155
:10160800FFF73EFF78617A68B9687869FFF78EFF5F
:10161800024697F90F3011461846FFF75DFF00BFE5
:101628001837BD4680BD80B582B000AF0346FB7158
:1016380097F907301846FFF731FF00BF0837BD4656
:1016480080BD80B582B000AF78607868FFF7A2FFF0
:10165800034618460837BD4680BD000080B489B0EF
:1016680000AF7860396000237B6100233B61002371
:10167800BB610023FB6159E10122FB6902FA03F314
:101688007B613B681B687A6913403B613A697B69F7
:101698009A4240F048813B685B6803F00303012BE2
:1016A80005D03B685B6803F00303022B30D17B68ED
:1016B8009B68BB61FB695B00032202FA03F3DB430F
:1016C800BA691340BB613B68DA68FB695B0002FAE0
:1016D80003F3BA691343BB617B68BA699A607B6894
:1016E8005B68BB610122FB6902FA03F3DB43BA6959
:1016F8001340BB613B685B681B0903F00102FB698F
:1017080002FA03F3BA691343BB617B68BA695A608A
:101718003B685B6803F00303032B17D07B68DB6827
:10172800BB61FB695B00032202FA03F3DB43BA697E
:101738001340BB613B689A68FB695B0002FA03F3DC
:10174800BA691343BB617B68BA69DA603B685B6856
:1017580003F00303022B23D1FB69DA087B68083204
:1017680053F82230BB61FB6903F007039B000F228B
:1017780002FA03F3DB43BA691340BB613B681A6999
:10178800FB6903F007039B0002FA03F3BA691343EA
:10179800BB61FB69DA087B680832B96943F8221033
:1017A8007B681B68BB61FB695B00032202FA03F3D9
:1017B800DB43BA691340BB613B685B6803F0030213
:1017C800FB695B0002FA03F3BA691343BB617B68E8
:1017D800BA691A603B685B6803F44033002B00F079
:1017E800A2800023FB60574B5B6C564A43F480434E
:1017F8005364544B5B6C03F48043FB60FB68524AB0
:10180800FB699B08023352F82330BB61FB6903F084
:1018180003039B000F2202FA03F3DB43BA69134068
:10182800BB617B68494A934219D07B68484A934216
:1018380013D07B68474A93420DD07B68464A93424F
:1018480007D07B68454A934201D1042308E0072367
:1018580006E0032304E0022302E0012300E0002362
:10186800FA6902F0030292009340BA691343BB611C
:101878003549FB699B080233BA6941F82320384B84
:101888009B68BB613B69DB43BA691340BB613B683A
:101898005B6803F48013002B03D0BA693B691343D8
:1018A800BB612F4ABB6993602D4BDB68BB613B6909
:1018B800DB43BA691340BB613B685B6803F4001300
:1018C800002B03D0BA693B691343BB61244ABB6947
:1018D800D360234B5B68BB613B69DB43BA69134048
:1018E800BB613B685B6803F40033002B03D0BA6923
:1018F8003B691343BB611A4ABB695360184B1B68A9
:10190800BB613B69DB43BA691340BB613B685B68F9
:1019180003F48033002B03D0BA693B691343BB61DE
:101928000F4ABB691360FB690133FB61FB690F2B2D
:101938007FF6A2AE00BF00BF2437BD465DF8047B2A
:10194800704700BF003802400038014000000240E4
:101958000004024000080240000C0240001002404F
:10196800003C014080B483B000AF78600B467B80B8
:1019780013467B707B78002B03D07A887B689A614A
:1019880003E07B881A047B689A6100BF0C37BD4668
:101998005DF8047B7047F0B58FB00AAF78607B685C
:1019A800002B01D1012354E07B681B68FB607B6836
:1019B80093F8F932DBB2002B06D17B68002283F85A
:1019C800F822786807F084F87B68032283F8F92204
:1019D800FB68DB6B03F48073002B02D17B68002269
:1019E8001A617B681B68184604F0B0F87B681B68AE
:1019F8003B607E686D4606F110040FCC0FC50FCC16
:101A08000FC594E8030085E80300331D0ECB386842
:101A180004F02AF87B681B680121184604F0A7F82F
:101A28007B681B683B607E686D4606F110040FCC2E
:101A38000FC50FCC0FC594E8030085E80300331DDC
:101A48000ECB386804F030FA7B68012283F8F9225B
:101A5800002318461437BD46F0BD90B589B004AFD1
:101A68007860084611461A460346FB700B46BB7061
:101A780013467B707B6893F8F832012B01D102235F
:101A880076E07B68012283F8F822FB787A682C21BB
:101A980001FB03F313443D3300221A70FB787A6884
:101AA8002C2101FB03F3134438337A781A70FB783E
:101AB8007A682C2101FB03F3134440333A8D1A80D2
:101AC800FB787A682C2101FB03F313443933FA7845
:101AD8001A70FB787A682C2101FB03F313443F3317
:101AE80097F824201A70FB78BA7802F07F02D0B2F7
:101AF8007A682C2101FB03F313443A3302461A7027
:101B080097F90230002B09DAFB787A682C2101FB5F
:101B180003F313443B3301221A7008E0FB787A6818
:101B28002C2101FB03F313443B3300221A70FB788A
:101B38007A682C2101FB03F313443C3397F82020E7
:101B48001A707B6818687C78BA78F9783B8D0293AC
:101B580097F82430019397F820300093234604F037
:101B680029FB0346FB737B68002283F8F822FB7B82
:101B780018461437BD4690BD80B584B000AF786074
:101B88000B46FB700023FB737B6893F8F832012B3C
:101B980001D102230FE07B68012283F8F8227B68D9
:101BA8001B68FA781146184604F079FD7B68002214
:101BB80083F8F822FB7B18461037BD4680BD00002D
:101BC80080B582B000AF7860084611461A460346D1
:101BD800FB700B46BB7013467B70FB787A682C2130
:101BE80001FB03F313443B33BA781A70FB787A6825
:101BF8002C2101FB03F313443F337A781A703B7CA2
:101C0800002B12D1FB787A682C2101FB03F31344D3
:101C1800423303221A70FB787A682C2101FB03F304
:101C280013443D333A7F1A7008E0FB787A682C2118
:101C380001FB03F31344423302221A707B78032B0F
:101C480000F2C68001A252F823F000BF651C00080C
:101C5800C51D0008C91C0008471D00083B7C012B56
:101C680040F0B880BB78002B40F0B4803B8B002B51
:101C780008D1FB787A682C2101FB03F31344553310
:101C880001221A70FB787A682C2101FB03F31344B4
:101C980055331B78002B09D1FB787A682C2101FB7E
:101CA80003F31344423300221A7093E0FB787A68F6
:101CB8002C2101FB03F31344423302221A7089E0FA
:101CC800BB78002B1DD1FB787A682C2101FB03F32C
:101CD800134455331B78002B09D1FB787A682C21E3
:101CE80001FB03F31344423300221A7073E0FB78BC
:101CF8007A682C2101FB03F31344423302221A7041
:101D080069E0FB787A682C2101FB03F31344543310
:101D18001B78002B09D1FB787A682C2101FB03F38F
:101D28001344423300221A7055E0FB787A682C215C
:101D380001FB03F31344423302221A704BE0BB78D1
:101D4800002B1DD1FB787A682C2101FB03F3134487
:101D580055331B78002B09D1FB787A682C2101FBBD
:101D680003F31344423300221A7034E0FB787A6894
:101D78002C2101FB03F31344423302221A702AE098
:101D8800FB787A682C2101FB03F3134454331B7846
:101D9800002B09D1FB787A682C2101FB03F313444B
:101DA800423300221A7016E0FB787A682C2101FB76
:101DB80003F31344423302221A700CE0FB787A686A
:101DC8002C2101FB03F31344423300221A7002E072
:101DD80000BF00E000BFFB787A682C2101FB03F309
:101DE800134444337A691A60FB783A8B79682C205B
:101DF80000FB03F30B444C331A60FB787A682C2100
:101E080001FB03F31344603300221A70FB787A68ED
:101E18002C2101FB03F31344503300221A60FB7892
:101E28007A682C2101FB03F313443933FA781A70CA
:101E3800FB787A682C2101FB03F3134461330022F9
:101E48001A707B681868FB782C2202FB03F338337E
:101E58007A68D1187B681B69DBB21A4604F0CCFAA1
:101E6800034618460837BD4680BD00BF80B586B01A
:101E780000AF78607B681B683B613B69FB607B68EF
:101E88001B68184603F0CDFF0346012B40F0F6808F
:101E98007B681B68184603F0B1FF0346002B00F06F
:101EA800EC807B681B68184603F0A8FF034603F420
:101EB8000013B3F5001F04D17B681B684FF40012B0
:101EC8005A617B681B68184603F098FF034603F4C1
:101ED8008013B3F5801F04D17B681B684FF4801210
:101EE8005A617B681B68184603F088FF034603F0B5
:101EF8008063B3F1806F04D17B681B684FF0806208
:101F08005A617B681B68184603F078FF034603F0A4
:101F18000203022B03D17B681B6802225A617B688B
:101F28001B68184603F06AFF034603F00053B3F139
:101F3800005F1CD17B681B684FF000525A61FB6838
:101F480003F588631B6803F00103002B0FD11021F0
:101F5800386903F059FE386903F08AFE7B681B680C
:101F68000121184604F060F8786806F02FFE7B68B7
:101F78001B68184603F042FF034603F08073B3F171
:101F8800807F02D1786801F09EF87B681B6818464C
:101F980003F034FF034603F00803082B06D17868E2
:101FA80006F0F8FD7B681B6808225A617B681B688D
:101FB800184603F023FF034603F01003102B01D14A
:101FC800012300E00023002B12D07B681B689A696C
:101FD8007B681B6822F010029A61786800F0A1FF04
:101FE8007B681B689A697B681B6842F010029A61DB
:101FF8007B681B68184603F001FF034603F0007373
:10200800B3F1007F3AD17B681B68184604F036FBB1
:10201800B86000237B6125E07B6903F00F03BA6891
:1020280022FA03F303F00103002B18D07B695A014D
:10203800FB68134403F5A0631B6803F40043B3F57E
:10204800004F06D17B69DBB21946786800F0ABF81F
:1020580005E07B69DBB21946786800F0F9FB7B691B
:1020680001337B617B689B687A699A42D4D37B6829
:102078001B684FF000725A6100E000BF1837BD4678
:1020880080BD80B582B000AF78607B6893F8F83285
:10209800012B01D1022313E07B68012283F8F82287
:1020A8007B681B680121184604F022F87B681B68CE
:1020B800184603F03AFD7B68002283F8F8220023D3
:1020C80018460837BD4680BD80B582B000AF78603D
:1020D8007B6893F8F832012B01D102230DE07B686D
:1020E800012283F8F8227B681B68184604F010FC6C
:1020F8007B68002283F8F822002318460837BD467B
:1021080080BD80B582B000AF78607B681B681846D8
:1021180003F0C4FF034618460837BD4680BD80B4A7
:1021280083B000AF78600B46FB70FB787A682C218F
:1021380001FB03F3134460331B7818460C37BD4684
:102148005DF8047B704780B483B000AF78600B46BD
:10215800FB70FB787A682C2101FB03F3134450339E
:102168001B6818460C37BD465DF8047B704780B580
:1021780082B000AF78607B681B68184604F008F8E6
:10218800034618460837BD4680BD80B582B000AF0B
:1021980078607B681B68184603F0E3FF034618461F
:1021A8000837BD4680BD80B586B000AF78600B4665
:1021B800FB707B681B687B617B693B61FB78FB601C
:1021C800FB685A013B69134403F5A0639B6803F05D
:1021D8000403042B1AD1FB685A013B69134403F525
:1021E800A0631A46042393607A68FB682C2101FBDC
:1021F80003F31344613306221A707B681B68FA687C
:10220800D2B21146184604F04AFAAFE0FB685A0108
:102218003B69134403F5A0639B6803F48073B3F52B
:10222800807F1BD1FB685A013B69134403F5A06307
:102238001A464FF4807393607A68FB682C2101FB7F
:1022480003F31344613307221A707B681B68FA682A
:10225800D2B21146184604F022FA87E0FB685A0108
:102268003B69134403F5A0639B6803F02003202B0C
:1022780009D1FB685A013B69134403F5A0631A4668
:102288002023936072E0FB685A013B69134403F50D
:10229800A0639B6803F00803082B1AD1FB685A0156
:1022A8003B69134403F5A0631A46082393607A68D0
:1022B800FB682C2101FB03F31344613305221A70D8
:1022C8007B681B68FA68D2B21146184604F0E7F931
:1022D8004CE0FB685A013B69134403F5A0639B6813
:1022E80003F48063B3F5806F1BD1FB685A013B6927
:1022F800134403F5A0631A464FF4806393607A6829
:10230800FB682C2101FB03F31344613308221A7084
:102318007B681B68FA68D2B21146184604F0BFF908
:1023280024E0FB685A013B69134403F5A0639B68EA
:1023380003F08003802B19D1FB685A013B691344D1
:1023480003F5A0631A46802393607A68FB682C2102
:1023580001FB03F31344613306221A707B681B6880
:10236800FA68D2B21146184604F099F9FB685A0186
:102378003B69134403F5A0639B6803F40073B3F54A
:10238800007F12D17B681B68FA68D2B211461846E2
:1023980004F085F9FB685A013B69134403F5A0630F
:1023A8001A464FF4007393604EE2FB685A013B698A
:1023B800134403F5A0639B6803F00103012B40F06D
:1023C800DF807B681B69002B19D07A68FB682C2199
:1023D80001FB03F3134448331A68FB6859013B694E
:1023E8000B4403F5A0631B69C3F31203D21A79687F
:1023F800FB682C2000FB03F30B4450331A607A6807
:10240800FB682C2101FB03F31344613301221A708A
:102418007A68FB682C2101FB03F313445C33002228
:102428001A60FB685A013B69134403F5A0631A4616
:10243800012393607A68FB682C2101FB03F31344A2
:102448003F331B78002B09D07A68FB682C2101FBED
:1024580003F313443F331B78022B11D17B681B68AD
:10246800FA68D2B21146184604F019F9FB685A0105
:102478003B69134403F5A0631A46102393603AE0BE
:102488007A68FB682C2101FB03F313443F331B7864
:10249800032B09D07A68FB682C2101FB03F3134452
:1024A8003F331B78012B26D1FB685A013B69134443
:1024B80003F5A0631B68FA6851013A690A4402F5FA
:1024C800A06243F0005313607A68FB682C2101FB7B
:1024D80003F31344603301221A70FB68D9B27A6897
:1024E800FB682C2000FB03F3134460331B781A4667
:1024F800786806F079FB7B681B69012B2BD17A6819
:10250800FB682C2101FB03F3134448331B687968EB
:10251800FA682C2000FB02F20A4440321288B3FB0E
:10252800F2F303F00103002B00F08E817A68FB6858
:102538002C2101FB03F3134454331B7883F001036C
:10254800D8B27A68FB682C2101FB03F31344543397
:1025580002461A7078E17A68FB682C2101FB03F3C4
:10256800134454331B7883F00103D8B27A68FB68AC
:102578002C2101FB03F31344543302461A7063E120
:10258800FB685A013B69134403F5A0639B6803F099
:102598000203022B40F0F6807A68FB682C2101FBCD
:1025A80003F3134461331B78012B09D17A68FB6864
:1025B8002C2101FB03F31344603301221A70C9E094
:1025C8007A68FB682C2101FB03F3134461331B7801
:1025D800052B09D17A68FB682C2101FB03F313440E
:1025E800603305221A70B5E07A68FB682C2101FB7C
:1025F80003F3134461331B78062B09D07A68FB6810
:102608002C2101FB03F3134461331B78082B50D1B1
:102618007A68FB682C2101FB03F313445C331B68C5
:102628005A1C7968FB682C2000FB03F30B445C33CD
:102638001A607A68FB682C2101FB03F313445C33AE
:102648001B68022B12D97A68FB682C2101FB03F363
:1026580013445C3300221A607A68FB682C2101FB62
:1026680003F31344603304221A7073E07A68FB683A
:102678002C2101FB03F31344603302221A70FB6818
:102688005A013B69134403F5A0631B68BB60BB6830
:1026980023F08043BB60BB6843F00043BB60FB682A
:1026A8005A013B69134403F5A0631A46BB681360DB
:1026B80050E07A68FB682C2101FB03F31344613373
:1026C8001B78032B22D17A68FB682C2101FB03F3CA
:1026D8001344603302221A70FB685A013B691344A1
:1026E80003F5A0631B68BB60BB6823F08043BB6035
:1026F800BB6843F00043BB60FB685A013B69134465
:1027080003F5A0631A46BB68136023E07A68FB6888
:102718002C2101FB03F3134461331B78072B19D1D8
:102728007A68FB682C2101FB03F313445C331B68B4
:102738005A1C7968FB682C2000FB03F30B445C33BC
:102748001A607A68FB682C2101FB03F31344603399
:1027580004221A70FB685A013B69134403F5A0630D
:102768001A4602239360FB68D9B27A68FB682C206A
:1027780000FB03F3134460331B781A46786806F0AD
:1027880033FA61E0FB685A013B69134403F5A0631F
:102798009B6803F01003102B56D17A68FB682C2134
:1027A80001FB03F313443F331B78032B11D17A68E1
:1027B800FB682C2101FB03F313445C3300221A60ED
:1027C8007B681B68FA68D2B21146184603F067FFA7
:1027D80031E07A68FB682C2101FB03F313443F3393
:1027E8001B78002B09D07A68FB682C2101FB03F3C6
:1027F80013443F331B78022B1DD17A68FB682C21C8
:1028080001FB03F313445C3300221A607B681B69E5
:10281800002B10D17A68FB682C2101FB03F31344C9
:10282800613303221A707B681B68FA68D2B21146BA
:10283800184603F034FFFB685A013B69134403F55B
:10284800A0631A461023936000BF1837BD4680BDA9
:1028580080B588B000AF78600B46FB707B681B685A
:10286800FB61FB69BB61FB787B617B695A01BB69D2
:10287800134403F5A0639B6803F00403042B1AD1E7
:102888007B695A01BB69134403F5A0631A46042304
:1028980093607A687B692C2101FB03F3134461334D
:1028A80006221A707B681B687A69D2B211461846EC
:1028B80003F0F5FE31E37B695A01BB69134403F564
:1028C800A0639B6803F02003202B2ED17B695A015B
:1028D800BB69134403F5A0631A46202393607A6802
:1028E8007B692C2101FB03F313443D331B78012B37
:1028F80040F013837A687B692C2101FB03F31344AE
:102908003D3300221A707A687B692C2101FB03F39E
:102918001344603302221A707B681B687A69D2B24A
:102928001146184603F0BBFEF7E27B695A01BB6902
:10293800134403F5A0639B6803F40073B3F5007FA9
:1029480012D17B695A01BB69134403F5A0631A4687
:102958004FF4007393607B681B687A69D2B21146A2
:10296800184603F09CFED8E27B695A01BB69134400
:1029780003F5A0639B6803F00103012B40D17A683B
:102988007B692C2101FB03F313445C3300221A609A
:102998007B695A01BB69134403F5A0639B6803F084
:1029A8004003402B11D17A687B692C2101FB03F38A
:1029B80013443D3301221A707B695A01BB691344E1
:1029C80003F5A0631A46402393607B695A01BB69EB
:1029D800134403F5A0631A46012393607A687B6960
:1029E8002C2101FB03F31344613301221A707B6825
:1029F8001B687A69D2B21146184603F050FE8CE281
:102A08007B695A01BB69134403F5A0639B6803F013
:102A18004003402B2CD17A687B692C2101FB03F3FE
:102A28001344613304221A707A687B692C2101FBF4
:102A380003F313443D3301221A707A687B692C2111
:102A480001FB03F313445C3300221A607B681B68A4
:102A58007A69D2B21146184603F021FE7B695A0101
:102A6800BB69134403F5A0631A464023936054E2FC
:102A78007B695A01BB69134403F5A0639B6803F0A3
:102A88000803082B1AD17B695A01BB69134403F563
:102A9800A0631A46082393607A687B692C2101FB9E
:102AA80003F31344613305221A707B681B687A6943
:102AB800D2B21146184603F0F2FD2EE27B695A01A4
:102AC800BB69134403F5A0639B6803F01003102B44
:102AD80040D17A687B692C2101FB03F313445C33F2
:102AE80000221A607A687B692C2101FB03F31344E6
:102AF800613303221A707A687B692C2101FB03F386
:102B080013443D331B78002B12D17A687B692C2142
:102B180001FB03F313443C331B78002B08D17A687C
:102B28007B692C2101FB03F313443D3301221A7006
:102B38007B681B687A69D2B21146184603F0AFFD6C
:102B48007B695A01BB69134403F5A0631A46102335
:102B58009360E2E17B695A01BB69134403F5A06302
:102B68009B6803F08003802B64D17B681B69002B72
:102B780011D17A687B692C2101FB03F3134461337B
:102B880006221A707B681B687A69D2B21146184609
:102B980003F085FD44E07A687B692C2101FB03F38F
:102BA80013445C331B685A1C79687B692C2000FB32
:102BB80003F30B445C331A607A687B692C2101FBB0
:102BC80003F313445C331B68022B20D97A687B69B2
:102BD8002C2101FB03F313445C3300221A607A684A
:102BE8007B692C2101FB03F31344603304221A7020
:102BF8007B69D9B27A687B692C2000FB03F3134404
:102C080060331B781A46786805F0EEFF08E07A68AA
:102C18007B692C2101FB03F31344603302221A70F1
:102C28007B695A01BB69134403F5A0631A468023E4
:102C3800936072E17B695A01BB69134403F5A06391
:102C48009B6803F48063B3F5806F1BD17A687B6956
:102C58002C2101FB03F31344613308221A707B68AB
:102C68001B687A69D2B21146184603F018FD7B69D1
:102C78005A01BB69134403F5A0631A464FF48063F5
:102C880093604AE17B695A01BB69134403F5A06369
:102C98009B6803F00203022B40F03F817A687B694E
:102CA8002C2101FB03F3134461331B78012B7DD1E5
:102CB8007A687B692C2101FB03F3134460330122FA
:102CC8001A707A687B692C2101FB03F313443F33A4
:102CD8001B78022B0AD07A687B692C2101FB03F34D
:102CE80013443F331B78032B40F000817B681B693A
:102CF800002B13D17A687B692C2101FB03F3134461
:102D080055331B7883F00103D8B27A687B692C218C
:102D180001FB03F31344553302461A707B681B69A1
:102D2800012B40F0E3807A687B692C2101FB03F3D7
:102D380013444C331B68002B00F0D8807A687B69F9
:102D48002C2101FB03F313444C331B6879687A691F
:102D58002C2000FB02F20A44403212881344013B43
:102D680079687A692C2000FB02F20A444032128802
:102D7800B3FBF2F3FB60FB6803F00103002B00F0E8
:102D8800B5807A687B692C2101FB03F31344553322
:102D98001B7883F00103D8B27A687B692C2101FB88
:102DA80003F31344553302461A709FE07A687B692F
:102DB8002C2101FB03F3134461331B78032B09D146
:102DC8007A687B692C2101FB03F3134460330222E8
:102DD8001A708BE07A687B692C2101FB03F313449A
:102DE80061331B78042B09D17A687B692C2101FB9C
:102DF80003F31344603302221A7077E07A687B6920
:102E08002C2101FB03F3134461331B78052B09D1F3
:102E18007A687B692C2101FB03F313446033052294
:102E28001A7063E07A687B692C2101FB03F3134471
:102E380061331B78062B09D07A687B692C2101FB4A
:102E480003F3134461331B78082B4FD17A687B69ED
:102E58002C2101FB03F313445C331B685A1C79686B
:102E68007B692C2000FB03F30B445C331A607A68FF
:102E78007B692C2101FB03F313445C331B68022B91
:102E880012D97A687B692C2101FB03F313445C3364
:102E980000221A607A687B692C2101FB03F3134432
:102EA800603304221A7021E07A687B692C2101FBC7
:102EB80003F31344603302221A707B695A01BB6919
:102EC800134403F5A0631B683B613B6923F080430F
:102ED8003B613B6943F000433B617B695A01BB6935
:102EE800134403F5A0631A463B6913607B695A01D2
:102EF800BB69134403F5A0631A46022393607B69F8
:102F0800D9B27A687B692C2000FB03F31344603341
:102F18001B781A46786805F067FE00BF2037BD4663
:102F280080BD80B58AB000AF78607B681B687B6223
:102F38007B6A3B627B681B681B6AFB61FB6903F069
:102F48000F03BB61FB695B0C03F00F037B61FB693B
:102F58001B09C3F30A033B617B69022B04D07B691D
:102F6800052B00F0A980AAE03B69002B00F0A680A1
:102F78007A68BB692C2101FB03F3134444331B68B3
:102F8800002B00F09B807A68BB692C2101FB03F3BE
:102F9800134450331A683B691A447968BB692C207A
:102FA80000FB03F30B444C331B689A427AD87B68C6
:102FB80018687A68BB692C2101FB03F31344443376
:102FC8001B683A6992B2194602F0C0FE7A68BB697A
:102FD8002C2101FB03F3134444331A683B691A4458
:102FE8007968BB692C2000FB03F30B4444331A6057
:102FF8007A68BB692C2101FB03F3134450331A6828
:103008003B691A447968BB692C2000FB03F30B4425
:1030180050331A60BB695A013B6A134403F5A06335
:103028001B69DB0CC3F30903FB607A68BB692C21BD
:1030380001FB03F3134440331B881A463B69934250
:103048003CD1FB68002B39D0BB695A013B6A134459
:1030580003F5A0631B68BB60BB6823F08043BB60BB
:10306800BB6843F00043BB60BB695A013B6A134429
:1030780003F5A0631A46BB6813607A68BB692C2104
:1030880001FB03F3134454331B7883F00103D8B2D4
:103098007A68BB692C2101FB03F3134454330246BD
:1030A8001A700BE07A68BB692C2101FB03F3134407
:1030B800603304221A7001E000BF00E000BF00BFC7
:1030C8002837BD4680BD80B586B000AF78607B6884
:1030D8001B687B617B693B613B6903F588631B68FF
:1030E800FB603B6903F588631B68BB60BB6823F022
:1030F8002E03BB60FB6803F00203022B0BD1FB68B5
:1031080003F00103012B02D1786805F051FDBB687B
:1031180043F00203BB60FB6803F00803082B32D1BD
:10312800BB6843F00803BB60FB6803F00403042B8F
:1031380026D17B689B69022B13D1FB6803F4C0235B
:10314800B3F5802F06D17B681B680221184602F070
:103158006BFF11E07B681B680121184602F064FFD1
:103168000AE07B68DB68012B06D13B6903F58063C5
:103178001A464EF660235360786805F043FD02E076
:10318800786805F04DFDFB6803F02003202B03D180
:10319800BB6843F02003BB603B6903F588631A46AC
:1031A800BB68136000BF1837BD4680BD80B584B0CA
:1031B80000AF78607B68002B01D101232BE17B688D
:1031C80093F83D30DBB2002B06D17B68002283F8F0
:1031D8003C207868FDF7D8FD7B68242283F83D20E1
:1031E8007B681B681A687B681B6822F001021A60FA
:1031F8007B681B681A687B681B6842F400421A6087
:103208007B681B681A687B681B6822F400421A6096
:1032180001F020FAF8607B685B68814A934207D81E
:10322800FB68804A934294BF01230023DBB206E087
:10323800FB687D4A934294BF01230023DBB2002B35
:1032480001D00123E7E0FB68784AA2FB03239B0C2B
:10325800BB607B681B685B6823F03F017B681B6869
:10326800BA680A435A607B681B681B6A23F03F01EF
:103278007B685B686A4A934202D8BB68013309E0FD
:10328800BB684FF4967202FB03F3694AA2FB03235F
:103298009B0901337A6812680B4313627B681B68C9
:1032A800DB6923F44F4222F0FF027B685B685C49CC
:1032B8008B4219D8FB68591E7B685B685B00B1FBC1
:1032C800F3F3591C40F6FC730B40002B0AD0FB6843
:1032D800591E7B685B685B00B1FBF3F30133C3F3F2
:1032E8000B0351E004234FE07B689B68002B11D14E
:1032F800FB68581E7B6859680B465B000B44B0FBA3
:10330800F3F30133C3F30B03002B0CBF012300239A
:10331800DBB212E0FB68581E7B6859680B469B00BD
:103328000B4499000B44B0FBF3F30133C3F30B03D5
:10333800002B0CBF01230023DBB2002B01D001239B
:1033480022E07B689B68002B0ED1FB68581E7B68C7
:1033580059680B465B000B44B0FBF3F30133C3F32E
:103368000B0343F400430FE0FB68581E7B68596861
:103378000B469B000B4499000B44B0FBF3F301335D
:10338800C3F30B0343F44043796809681343CB61E3
:103398007B681B681B6823F0C0017B68DA697B685F
:1033A8001B6A1A437B681B680A431A607B681B68A0
:1033B8009B6823F4034323F0FF037A6811697A6852
:1033C800D26811437A6812680B4393607B681B6864
:1033D800DB6823F0FF017B685A697B689B691A43A5
:1033E8007B681B680A43DA607B681B681A687B681D
:1033F8001B6842F001021A607B6800221A647B682D
:10340800202283F83D207B6800221A637B68002213
:1034180083F83E20002318461037BD4680BD00BF04
:10342800A08601007F841E00FF083D0083DE1B4349
:10343800D34D621080B588B000AF78607B68002BF0
:1034480001D1012328E17B6893F84130DBB2002BDE
:1034580009D17B68002283F840207B68904A5A6330
:103468007868FDF7D9FC7B68022283F841207B68E5
:103478001B68DB697A68126823F47B6323F00F0307
:10348800D3617B681B6802221A627B685B69022B26
:1034980060D07B68DB68002B02D110237B6101E0E0
:1034A80020237B617B689B68202B02D87B695B00AB
:1034B8007B61012001F0D2F9F8607B681B69B3F5E4
:1034C800007F25D17B68DB68002B10D07B699B00CF
:1034D800FA68B2FBF3F213469B0013445B001A46EA
:1034E8007B685B69B2FBF3F305333B611FE07B69E3
:1034F800DB00FA68B2FBF3F213469B0013445B004F
:103508001A467B685B69B2FBF3F305333B610EE057
:10351800FA687B69B2FBF3F213469B0013445B0025
:103528001A467B685B69B2FBF3F305333B613B6981
:103538005C4AA2FB0323DB083B613B6903F0010300
:10354800BB613A69BB69D31A5B08FB61BB691B02A3
:10355800BB6103E00223FB610023BB61FB69012B14
:1035680002D9FB69FF2B07D97B685B6C43F010021B
:103578007B685A6401238FE07B681A69BB6942EA59
:1035880003017B681B68FA690A431A627B681B6837
:10359800DB6923F47B6323F00F037A6851687A6848
:1035A800926811437A68D26811437A6892690A432B
:1035B8001A437B681B6842F40062DA617B681B6A05
:1035C800012B61D17B68384A5A637B681B68374A8C
:1035D800934201D1364B01E04FF04023DB697A6812
:1035E800126832498A4201D1314A01E04FF0402243
:1035F80023F47B6323F00F03D3617B681B682B4A9A
:10360800934201D12A4B01E04FF0402302221A6273
:103618007B681B68254A934201D1254B01E04FF096
:103628004023DB697B817B685B68B3F5007F03D04F
:103638007B685B68002B03D14FF480733B6101E02A
:1036480000233B613B699AB27B689B689BB213433A
:103658009AB27B68DB689BB213439AB27B689B691A
:103668009BB213439AB27B8913439BB243F4006322
:103678007B817B681B680D4A934201D10C4B01E0AA
:103688004FF040237A89DA617B6800225A647B68AC
:10369800012283F84120002318462037BD4680BD0B
:1036A800B3370008CDCCCCCCC9380008003800406E
:1036B8000034004080B483B000AF786000BF0C379E
:1036C800BD465DF8047B704780B483B000AF786076
:1036D80000BF0C37BD465DF8047B704780B483B0EB
:1036E80000AF786000BF0C37BD465DF8047B7047BB
:1036F80080B582B000AF78607B685B6A1A887B68A7
:103708001B68DA607B685B6A9A1C7B685A627B6814
:103718005B8D9BB2013B9AB27B685A857B685B8D57
:103728009BB2002B0ED17B681B685A687B681B68AC
:1037380022F0A0025A607B68012283F84120786851
:10374800FFF7B8FF00BF0837BD4680BD80B582B01F
:1037580000AF78607B681B68DA687B68DB6A92B2C6
:103768001A807B68DB6A9A1C7B68DA627B685B8EEE
:103778009BB2013B9AB27B685A867B685B8E9BB290
:10378800002B0ED17B681B685A687B681B6822F087
:1037980060025A607B68012283F841207868FFF74D
:1037A80093FF00BF0837BD4680BD80B586B000AF27
:1037B80078607B681B689B687B617B6893F8413005
:1037C800DBB2042B3AD17B6903F00103012B09D149
:1037D8007B681B685B6803F04003402B02D1786864
:1037E800FFF7B4FF7B6903F04003402B26D17B68C9
:1037F8001B685B6803F02003202B1FD17B681B68C4
:103808005A687B681B6822F060025A6000233B619B
:103818007B681B68DB683B617B681B689B683B6156
:103828003B697B68012283F841207B685B6C43F02D
:1038380002027B685A647868FFF750FF7B6893F848
:103848004130DBB2032B36D17B6903F00203022B34
:1038580009D17B681B685B6803F08003802B02D169
:103868007868FFF745FF7B6903F00803082B22D12E
:103878007B681B685B6803F02003202B1BD17B68E7
:103888001B685A687B681B6822F0A0025A600023F4
:10389800FB607B681B689B68FB60FB687B68012298
:1038A80083F841207B685B6C43F004027B685A64B0
:1038B8007868FFF713FF00BF1837BD4680BD0000CA
:1038C80080B588B000AF78607B681B689B68FB6137
:1038D8007B681B68924A934201D1924B01E04FF0FA
:1038E80040239B68BB617B681B685B687B617B6866
:1038F8001B688B4A934201D18A4B01E04FF0402369
:103908005B683B617B685B68B3F5007F04D07B68CC
:103918005B68002B40F09980FB6903F00203022BDF
:1039280007D17B6903F08003002B02D0786800F090
:1039380025F9BB6903F00103012B07D13B6903F0AB
:103948004003002B02D0786800F0C8F9BB6903F087
:103958004003402B3AD13B6903F02003002B35D0BC
:103968007B681B686E4A934201D16E4B01E04FF0B1
:1039780040235A687B681B6869498B4201D1694BAF
:1039880001E04FF0402322F060025A607B681B6818
:103998005A687B681B6822F0A0025A600023FB600B
:1039A8007B681B68DB68FB607B681B689B68FB6047
:1039B800FB687B68012283F841207B685B6C43F0DD
:1039C80002027B685A647868FFF788FEFB6903F097
:1039D8000803082B40F0C3807B6903F02003002B09
:1039E80000F0BD807B681B685A687B681B6822F002
:1039F800A0025A607B681B68494A934201D1494B2F
:103A080001E04FF040235A687B681B6844498B42A9
:103A180001D1444B01E04FF0402322F060025A608C
:103A28000023BB607B681B689B68BB60BB687B68C6
:103A3800012283F841207B685B6C43F004027B68B9
:103A48005A647868FFF74AFE89E0BB6903F002030D
:103A5800022B07D13B6903F08003002B02D0786862
:103A680000F0BEF8FB6903F00103012B07D17B6965
:103A780003F04003002B02D0786800F0FDF8FB69E2
:103A880003F04003402B2FD17B6903F02003002B68
:103A98002AD07B681B685A687B681B6822F0600222
:103AA8005A607B681B681E4A934201D11D4B01E096
:103AB8004FF040235A687B681B6819498B4201D133
:103AC800184B01E04FF0402322F0A0025A607B68B7
:103AD800012283F841207B685B6C43F002027B681B
:103AE8005A647868FFF7FAFDBB6903F00803082BEE
:103AF80036D13B6903F02003002B31D07B681B686B
:103B0800074A934201D1074B01E04FF040235A681E
:103B18007B681B6802498B4206D1024B06E000BF56
:103B280000380040003400404FF0402322F0A0024B
:103B38005A607B681B685A687B681B6822F06002C1
:103B48005A607B68012283F841207B685B6C43F0F4
:103B580004027B685A647868FFF7C0FD00E000BF84
:103B680000BF2037BD4680BD80B483B000AF786009
:103B780000BF0C37BD465DF8047B704780B582B046
:103B880000AF78607B685B6A991C7A6851621A8812
:103B98007B681B68DA607B685B8D9BB2013B9AB2DD
:103BA8007B685A857B685B8D9BB2002B13D17B6841
:103BB8001B685A687B681B6822F0A0025A607B6801
:103BC8005B8E9BB2002B06D17B68012283F84120D3
:103BD8007868FFF7C9FF00BF0837BD4680BD000001
:103BE80080B582B000AF78607B685B6A991C7A68A0
:103BF800516219887B681B681D4A934201D11D4B8D
:103C080001E04FF040230A46DA607B685B8D9BB287
:103C1800013B9AB27B685A857B685B8D9BB2002B0F
:103C280021D17B681B68124A934201D1114B01E0F4
:103C38004FF040235A687B681B680D498B4201D1BD
:103C48000C4B01E04FF0402322F0A0025A607B6841
:103C58005B8E9BB2002B06D17B68012283F8412042
:103C68007868FFF781FF00BF0837BD4680BD00BFF9
:103C7800003800400034004080B582B000AF786062
:103C88007B681B68D8687B68DB6A991C7A68D16294
:103C980082B21A807B685B8E9BB2013B9AB27B68CA
:103CA8005A867B685B8E9BB2002B13D17B681B689E
:103CB8005A687B681B6822F060025A607B685B8DDB
:103CC8009BB2002B06D17B68012283F841207868DB
:103CD800FFF74AFF00BF0837BD4680BD80B582B0F8
:103CE80000AF78607B681B68204A934201D1204B63
:103CF80001E04FF04023D8687B68DB6A991C7A683A
:103D0800D16282B21A807B685B8E9BB2013B9AB209
:103D18007B685A867B685B8E9BB2002B21D17B68BF
:103D28001B68124A934201D1114B01E04FF0402326
:103D38005A687B681B680D498B4201D10C4B01E026
:103D48004FF0402322F060025A607B685B8D9BB283
:103D5800002B06D17B68012283F841207868FFF7A1
:103D680003FF00BF0837BD4680BD00BF00380040D4
:103D78000034004080B586B000AF78607B68002BC7
:103D880001D1012367E27B681B6803F00103002B64
:103D980075D0884B9B6803F00C03042B0CD0854B23
:103DA8009B6803F00C03082B12D1824B5B6803F469
:103DB8008003B3F5800F0BD17E4B1B6803F40033EF
:103DC800002B5BD07B685B68002B57D1012342E254
:103DD8007B685B68B3F5803F06D1764B1B68754AF4
:103DE80043F4803313601DE07B685B68B3F5A02F54
:103DF8000CD1704B1B686F4A43F4802313606D4BE2
:103E08001B686C4A43F4803313600BE0694B1B68F2
:103E1800684A23F480331360664B1B68654A23F4B1
:103E2800802313607B685B68002B13D0FDF7D4FAFE
:103E3800386108E0FDF7D0FA02463B69D31A642BD3
:103E480001D9032307E25B4B1B6803F40033002B03
:103E5800F0D014E0FDF7C0FA386108E0FDF7BCFACD
:103E680002463B69D31A642B01D90323F3E1514B72
:103E78001B6803F40033002BF0D100E000BF7B681F
:103E88001B6803F00203002B63D04A4B9B6803F0C6
:103E98000C03002B0BD0474B9B6803F00C03082B3B
:103EA8001CD1444B5B6803F48003002B16D1414BB3
:103EB8001B6803F00203002B05D07B68DB68012B2D
:103EC80001D00123C7E13B4B1B6823F0F8027B6854
:103ED8001B69DB00374913430B603AE07B68DB68FA
:103EE800002B20D0344B01221A60FDF775FA386197
:103EF80008E0FDF771FA02463B69D31A022B01D993
:103F08000323A8E12B4B1B6803F00203002BF0D01E
:103F1800284B1B6823F0F8027B681B69DB002549E6
:103F280013430B6015E0244B00221A60FDF754FA86
:103F3800386108E0FDF750FA02463B69D31A022BB4
:103F480001D9032387E11B4B1B6803F00203002BF5
:103F5800F0D17B681B6803F00803002B36D07B6820
:103F68005B69002B16D0154B01221A60FDF734FA55
:103F7800386108E0FDF730FA02463B69D31A022B94
:103F880001D9032367E10B4B5B6F03F00203002B9E
:103F9800F0D01BE0094B00221A60FDF71DFA3861CA
:103FA8000EE0FDF719FA02463B69D31A022B07D92E
:103FB800032350E10038024000004742800E474288
:103FC800884B5B6F03F00203002BEAD17B681B6808
:103FD80003F00403002B00F097800023FB75814B4E
:103FE8001B6C03F08053002B0FD10023BB607D4B6B
:103FF8001B6C7C4A43F0805313647A4B1B6C03F0B0
:104008008053BB60BB680123FB75774B1B6803F4C7
:104018008073002B18D1744B1B68734A43F4807368
:104028001360FDF7D9F9386108E0FDF7D5F90246C4
:104038003B69D31A022B01D903230CE16A4B1B6895
:1040480003F48073002BF0D07B689B68012B06D1AA
:10405800644B1B6F634A43F0010313671CE07B68E2
:104068009B68052B0CD15F4B1B6F5E4A43F0040322
:1040780013675C4B1B6F5B4A43F0010313670BE04C
:10408800584B1B6F574A23F001031367554B1B6F9F
:10409800544A23F0040313677B689B68002B15D0F0
:1040A800FDF79AF938610AE0FDF796F902463B698F
:1040B800D31A41F28832934201D90323CBE0494B0A
:1040C8001B6F03F00203002BEED014E0FDF784F918
:1040D80038610AE0FDF780F902463B69D31A41F2DC
:1040E8008832934201D90323B5E03E4B1B6F03F09E
:1040F8000203002BEED1FB7D012B05D1394B1B6C44
:10410800384A23F0805313647B689B69002B00F0C6
:10411800A180344B9B6803F00C03082B5CD07B68B0
:104128009B69022B41D1314B00221A60FDF754F9EB
:10413800386108E0FDF750F902463B69D31A022BB3
:1041480001D9032387E0274B1B6803F00073002B7A
:10415800F0D17B68DA697B681B6A1A437B685B6A03
:104168009B011A437B689B6A5B08013B1B041A434B
:104178007B68DB6A1B061B4913434B601B4B012200
:104188001A60FDF729F9386108E0FDF725F90246BC
:104198003B69D31A022B01D903235CE0114B1B683E
:1041A80003F00073002BF0D054E0104B00221A608B
:1041B800FDF712F9386108E0FDF70EF902463B6990
:1041C800D31A022B01D9032345E0064B1B6803F0E1
:1041D8000073002BF0D13DE07B689B69012B07D170
:1041E800012338E000380240007000406000474278
:1041F8001B4B5B68FB607B689B69012B28D0FB68C5
:1042080003F480027B68DB699A4221D1FB6803F0E2
:104218003F027B681B6A9A421AD1FA6847F6C07354
:1042280013407A68526A9201934211D1FB6803F4F1
:1042380040327B689B6A5B08013B1B049A4207D1AA
:10424800FB6803F070627B68DB6A1B069A4201D048
:10425800012300E0002318461837BD4680BD00BF83
:104268000038024080B584B000AF786039607B6860
:10427800002B01D10123CCE0684B1B6803F0070336
:104288003A689A420CD9654B3A68D2B21A70634BB5
:104298001B6803F007033A689A4201D00123B8E08B
:1042A8007B681B6803F00203002B20D07B681B6827
:1042B80003F00403002B05D0594B9B68584A43F47C
:1042C800E05393607B681B6803F00803002B05D05C
:1042D800534B9B68524A43F460439360504B9B682E
:1042E80023F0F0027B689B684D4913438B607B6821
:1042F8001B6803F00103002B44D07B685B68012B2B
:1043080007D1474B1B6803F40033002B19D1012355
:104318007FE07B685B68022B03D07B685B68032BBC
:1043280007D13F4B1B6803F00073002B09D1012311
:104338006FE03B4B1B6803F00203002B01D1012304
:1043480067E0374B9B6823F003027B685B6834495E
:1043580013438B60FDF740F8F8600AE0FDF73CF87E
:104368000246FB68D31A41F28832934201D90323EB
:104378004FE02B4B9B6803F00C027B685B689B004B
:104388009A42EBD1254B1B6803F007033A689A421F
:104398000CD2224B3A68D2B21A70204B1B6803F039
:1043A80007033A689A4201D0012332E07B681B6810
:1043B80003F00403002B08D0194B9B6823F4E05248
:1043C8007B68DB68164913438B607B681B6803F0C6
:1043D8000803002B09D0124B9B6823F460427B68CA
:1043E8001B69DB000E4913438B6000F021F802467D
:1043F8000B4B9B681B0903F00F030A49CB5C22FA9D
:1044080003F3094A1360094B1B681846FCF7A0FF21
:10441800002318461037BD4680BD00BF003C02404F
:1044280000380240F49200080C0000201000002020
:104438002DE9B04F94B000AF00237B640023FB64E8
:1044480000233B640023BB64794B9B6803F00C0397
:10445800082B0DD0082B00F2E180002B02D0042B92
:1044680003D0DBE0734BBB64DBE0734BBB64D8E089
:104478006F4B5B6803F03F037B646D4B5B6803F431
:104488008003002B63D06A4B5B689B090022BB63E7
:10449800FA63BB6BC3F308033B6300237B63D7E971
:1044A8000C4522462B464FF000004FF00001590101
:1044B80041EAD261500102460B462146511A396140
:1044C800294663EB01037B614FF000024FF00003C4
:1044D800D7E904AB59468B01514643EA91635146EB
:1044E8008A015146B2EB0108594663EB01094FF0C6
:1044F80000024FF000034FEAC90343EA58734FEA3A
:10450800C80290469946234618EB0303BB602B4626
:1045180049EB0303FB604FF000024FF00003D7E9BB
:10452800024529464B02214643EAD15321464A0215
:10453800104619467B6C0022BB62FA62D7E90A234F
:10454800FBF746FE02460B461346FB6458E0384B21
:104558005B689B09002218461146C0F308033B62BA
:1045680000237B62D7E9088942464B464FF000009A
:104578004FF00001590141EAD261500102460B4651
:104588004146B2EB010A494663EB010B4FF00002CA
:104598004FF000034FEA8B1343EA9A634FEA8A12FB
:1045A800B2EB0A0463EB0B054FF000024FF0000377
:1045B800EB0043EA5473E20014461D464346E318F1
:1045C8003B604B4645EB03037B604FF000024FF026
:1045D8000003D7E9004529468B02214643EA915357
:1045E80021468A02104619467B6C0022BB61FA619B
:1045F800D7E90623FBF7ECFD02460B461346FB649E
:104608000B4B5B681B0C03F0030301335B003B643B
:10461800FA6C3B6CB2FBF3F3BB6402E0054BBB6482
:1046280000BFBB6C18465037BD46BDE8B08F00BF11
:10463800003802400024F40000127A0080B400AF71
:10464800034B1B681846BD465DF8047B704700BFE6
:104658000C00002080B500AFFFF7F0FF0246054BC5
:104668009B689B0A03F007030349CB5C22FA03F318
:10467800184680BD003802400493000880B586B013
:1046880000AF786000237B6100233B617B681B6877
:1046980003F00103002B05D17B681B6803F00403BA
:1046A800002B38D0684B00221A60FCF795FE786121
:1046B80008E0FCF791FE02467B69D31A022B01D968
:1046C8000323BDE0614B1B6803F00063002BF0D1AE
:1046D8007B685A687B689B689B011A437B68DB6828
:1046E8001B075A491343C1F88430574B01221A60FB
:1046F800FCF772FE786108E0FCF76EFE02467B6903
:10470800D31A022B01D903239AE0504B1B6803F0FC
:104718000063002BF0D07B681B6803F00203002BBA
:1047280000F083800023FB60484B1B6C474A43F032
:1047380080531364454B1B6C03F08053FB60FB688C
:10474800434B1B68424A43F480731360FCF744FEF2
:10475800786108E0FCF740FE02467B69D31A022B19
:1047680001D903236CE03A4B1B6803F48073002BD8
:10477800F0D0364B1B6F03F440733B613B69002B51
:104788002FD07B681B6903F440733A699A4228D09A
:104798002E4B1B6F23F440733B612E4B01221A6092
:1047A8002C4B00221A60294A3B691367274B1B6F61
:1047B80003F00103012B14D1FCF70EFE78610AE027
:1047C800FCF70AFE02467B69D31A41F2883293420B
:1047D80001D9032334E01D4B1B6F03F00203002BA8
:1047E800EED07B681B6903F44073B3F5407F0DD1AD
:1047F800164B9B6823F4F8127B681B6923F07043FF
:1048080023F44073114913438B6005E00F4B9B68F9
:104818000E4A23F4F81393600C4B1A6F7B681B69DC
:10482800C3F30B03094913430B677B681B6803F049
:104838000803002B03D07B681A7D074B1A600023FE
:1048480018461837BD4680BD680047420038024008
:1048580000700040400E4742E011474280B487B0E4
:1048680000AF786000237B6100233B610023FB607D
:104878000023BB607B68012B40D1244B9B6803F469
:104888000003FB60FB68002B05D0FB68012B31D1CE
:104898001F4B7B6131E01D4B5B6803F48003B3F56C
:1048A800800F09D1194BD3F8843003F03F03194A1C
:1048B800B2FBF3F33B6108E0144BD3F8843003F008
:1048C8003F03154AB2FBF3F33B61104BD3F8843036
:1048D8009B09C3F308023B6902FB03F3BB600B4B64
:1048E800D3F884301B0F03F00703BA68B2FBF3F365
:1048F8007B6102E000237B6100BF00BF7B69184633
:104908001C37BD465DF8047B704700BF0038024085
:104918000080BB0000127A000024F40080B582B049
:1049280000AF78607B68002B01D101237BE07B68B6
:104938005B6A002B08D17B685B68B3F5827F09D07E
:104948007B680022DA6105E07B6800221A617B68D7
:1049580000225A617B6800229A627B6893F8513082
:10496800DBB2002B06D17B68002283F850207868E0
:10497800FCF720FB7B68022283F851207B681B68C8
:104988001A687B681B6822F040021A607B685B68C3
:1049980003F482727B689B6803F404431A437B68C0
:1049A800DB6803F400631A437B681B6903F00203A6
:1049B8001A437B685B6903F001031A437B689B69B0
:1049C80003F400731A437B68DB6903F038031A4366
:1049D8007B681B6A03F0800342EA03017B689B6AD9
:1049E80003F400527B681B680A431A607B689B6962
:1049F8001B0C03F004017B685B6A03F010027B6800
:104A08001B680A435A607B681B68DA697B681B6805
:104A180022F40062DA617B6800225A657B68012211
:104A280083F85120002318460837BD4680BD80B55D
:104A380082B000AF78607B68002B01D1012341E090
:104A48007B6893F83D30DBB2002B06D17B680022EF
:104A580083F83C207868FCF7F5FA7B68022283F833
:104A68003D207B681A687B6804331946104600F0BD
:104A7800ADFC7B68012283F846207B68012283F81D
:104A88003E207B68012283F83F207B68012283F85F
:104A980040207B68012283F841207B68012283F84B
:104AA80042207B68012283F843207B68012283F837
:104AB80044207B68012283F845207B68012283F823
:104AC8003D20002318460837BD4680BD80B485B018
:104AD80000AF78607B6893F83D30DBB2012B01D0E2
:104AE80001233CE07B68022283F83D207B681B6839
:104AF8001E4A934218D07B681B68B3F1804F13D0CD
:104B08007B681B681A4A93420ED07B681B68194A57
:104B1800934209D07B681B68174A934204D07B688C
:104B28001B68164A934211D17B681B689B6803F087
:104B38000703FB60FB68062B10D07B681B681A68AC
:104B48007B681B6842F001021A6007E07B681B68FB
:104B58001A687B681B6842F001021A600023184635
:104B68001437BD465DF8047B704700BF0000014064
:104B78000004004000080040000C004000400140D4
:104B880080B485B000AF78607B6893F83D30DBB2C5
:104B9800012B01D0012344E07B68022283F83D20E9
:104BA8007B681B68DA687B681B6842F00102DA6080
:104BB8007B681B681E4A934218D07B681B68B3F158
:104BC800804F13D07B681B681A4A93420ED07B68CB
:104BD8001B68194A934209D07B681B68174A93429D
:104BE80004D07B681B68164A934211D17B681B6806
:104BF8009B6803F00703FB60FB68062B10D07B68FB
:104C08001B681A687B681B6842F001021A6007E09B
:104C18007B681B681A687B681B6842F001021A608F
:104C2800002318461437BD465DF8047B704700BF63
:104C3800000001400004004000080040000C004053
:104C48000040014080B582B000AF78607B68002BDF
:104C580001D1012341E07B6893F83D30DBB2002BA2
:104C680006D17B68002283F83C20786800F039F888
:104C78007B68022283F83D207B681A687B680433CE
:104C88001946104600F0A2FB7B68012283F84620F3
:104C98007B68012283F83E207B68012283F83F204D
:104CA8007B68012283F840207B68012283F8412039
:104CB8007B68012283F842207B68012283F8432025
:104CC8007B68012283F844207B68012283F8452011
:104CD8007B68012283F83D20002318460837BD462B
:104CE80080BD80B483B000AF786000BF0C37BD468C
:104CF8005DF8047B7047000080B584B000AF786031
:104D080039603B68002B09D17B6893F83E30DBB2F1
:104D1800012B14BF01230023DBB222E03B68042BE4
:104D280009D17B6893F83F30DBB2012B14BF012314
:104D38000023DBB215E03B68082B09D17B6893F8A8
:104D48004030DBB2012B14BF01230023DBB208E0A3
:104D58007B6893F84130DBB2012B14BF0123002399
:104D6800DBB2002B01D0012368E03B68002B04D1A3
:104D78007B68022283F83E2013E03B68042B04D1B1
:104D88007B68022283F83F200BE03B68082B04D1A4
:104D98007B68022283F8402003E07B68022283F8C4
:104DA80041207B681B6801223968184600F0B4FD71
:104DB8007B681B68234A934207D17B681B685A6C3F
:104DC8007B681B6842F400425A647B681B681D4A72
:104DD800934218D07B681B68B3F1804F13D07B686F
:104DE8001B68194A93420ED07B681B68174A934286
:104DF80009D07B681B68164A934204D07B681B68FD
:104E0800144A934211D17B681B689B6803F007031F
:104E1800FB60FB68062B10D07B681B681A687B68F0
:104E28001B6842F001021A6007E07B681B681A6879
:104E38007B681B6842F001021A600023184610378D
:104E4800BD4680BD0000014000040040000800404D
:104E5800000C00400040014080B582B000AF78608F
:104E68007B681B681B6903F00203022B22D17B6855
:104E78001B68DB6803F00203022B1BD17B681B68ED
:104E88006FF002021A617B6801221A777B681B683F
:104E98009B6903F00303002B03D0786800F077FACE
:104EA80005E0786800F069FA786800F07AFA7B68BB
:104EB80000221A777B681B681B6903F00403042B24
:104EC80022D17B681B68DB6803F00403042B1BD129
:104ED8007B681B686FF004021A617B6802221A77EC
:104EE8007B681B689B6903F44073002B03D07868C8
:104EF80000F04DFA05E0786800F03FFA786800F0B5
:104F080050FA7B6800221A777B681B681B6903F0DC
:104F18000803082B22D17B681B68DB6803F00803B1
:104F2800082B1BD17B681B686FF008021A617B682D
:104F380004221A777B681B68DB6903F00303002BE4
:104F480003D0786800F023FA05E0786800F015FAD5
:104F5800786800F026FA7B6800221A777B681B685D
:104F68001B6903F01003102B22D17B681B68DB68D8
:104F780003F01003102B1BD17B681B686FF0100225
:104F88001A617B6808221A777B681B68DB6903F45F
:104F98004073002B03D0786800F0F9F905E07868D1
:104FA80000F0EBF9786800F0FCF97B6800221A77CA
:104FB8007B681B681B6903F00103012B0ED17B681A
:104FC8001B68DB6803F00103012B07D17B681B68B2
:104FD8006FF001021A617868FBF79CFA7B681B681E
:104FE8001B6903F08003802B0ED17B681B68DB688C
:104FF80003F08003802B07D17B681B686FF0800269
:105008001A61786800F026FD7B681B681B6903F04D
:105018004003402B0ED17B681B68DB6803F040031C
:10502800402B07D17B681B686FF040021A617868D3
:1050380000F0C1F97B681B681B6903F02003202B73
:105048000ED17B681B68DB6803F02003202B07D197
:105058007B681B686FF020021A61786800F0F0FC2A
:1050680000BF0837BD4680BD80B586B000AFF86088
:10507800B9607A600023FB75FB6893F83C30012B1C
:1050880001D10223AEE0FB68012283F83C207B6853
:105098000C2B00F29F8001A252F823F0D95000088F
:1050A800DD510008DD510008DD51000819510008E4
:1050B800DD510008DD510008DD5100085B51000892
:1050C800DD510008DD510008DD5100089B51000842
:1050D800FB681B68B968184600F0F8F9FB681B689C
:1050E8009A69FB681B6842F008029A61FB681B68B2
:1050F8009A69FB681B6822F004029A61FB681B68C6
:105108009969BB681A69FB681B680A439A6164E07D
:10511800FB681B68B968184600F03EFAFB681B6814
:105128009A69FB681B6842F400629A61FB681B6815
:105138009A69FB681B6822F480629A61FB681B68A5
:105148009969BB681B691A02FB681B680A439A6164
:1051580043E0FB681B68B968184600F089FAFB68E9
:105168001B68DA69FB681B6842F00802DA61FB68B1
:105178001B68DA69FB681B6822F00402DA61FB68C5
:105188001B68D969BB681A69FB681B680A43DA613E
:1051980023E0FB681B68B968184600F0D3FAFB687F
:1051A8001B68DA69FB681B6842F40062DA61FB6815
:1051B8001B68DA69FB681B6822F48062DA61FB68A5
:1051C8001B68D969BB681B691A02FB681B680A431C
:1051D800DA6102E00123FB7500BFFB68002283F857
:1051E8003C20FB7D18461837BD4680BD80B584B08D
:1051F80000AF786039600023FB737B6893F83C301C
:10520800012B01D10223B4E07B68012283F83C2002
:105218007B68022283F83D207B681B689B68BB6023
:10522800BB6823F07703BB60BB6823F47F43BB6094
:105238007B681B68BA689A603B681B68B3F5005FB7
:105248003ED0B3F5005F00F28780B3F5805F00F0D1
:105258008680B3F5805F7FD8702B1AD0702B7BD8EF
:10526800602B50D0602B77D8502B3CD0502B73D864
:10527800402B58D0402B6FD8302B64D0302B6BD8B4
:10528800202B60D0202B67D8002B5CD0102B5AD055
:1052980062E07B6818683B6899683B685A683B68B5
:1052A800DB6800F019FB7B681B689B68BB60BB6808
:1052B80043F07703BB607B681B68BA689A604FE06D
:1052C8007B6818683B6899683B685A683B68DB6884
:1052D80000F002FB7B681B689A687B681B6842F4D5
:1052E80080429A603CE07B6818683B6859683B6874
:1052F800DB681A4600F076FA7B681B68502118466E
:1053080000F0CFFA2CE07B6818683B6859683B6866
:10531800DB681A4600F095FA7B681B68602118461E
:1053280000F0BFFA1CE07B6818683B6859683B6866
:10533800DB681A4600F056FA7B681B68402118465D
:1053480000F0AFFA0CE07B681A683B681B681946E6
:10535800104600F0A6FA03E00123FB7300E000BF4B
:105368007B68012283F83D207B68002283F83C207B
:10537800FB7B18461037BD4680BD80B483B000AFB4
:10538800786000BF0C37BD465DF8047B704780B479
:1053980083B000AF786000BF0C37BD465DF8047B72
:1053A800704780B483B000AF786000BF0C37BD464B
:1053B8005DF8047B704780B483B000AF786000BFAD
:1053C8000C37BD465DF8047B7047000080B485B09B
:1053D80000AF786039607B681B68FB607B68344A83
:1053E80093420FD07B68B3F1804F0BD07B68314A72
:1053F800934207D07B68304A934203D07B682F4A98
:10540800934208D1FB6823F07003FB603B685B683C
:10541800FA681343FB607B68254A93421BD07B687C
:10542800B3F1804F17D07B68224A934213D07B6830
:10543800214A93420FD07B68204A93420BD07B6865
:105448001F4A934207D07B681E4A934203D07B6869
:105458001D4A934208D1FB6823F44073FB603B6804
:10546800DB68FA681343FB60FB6823F080023B6843
:105478005B691343FB607B68FA681A603B689A684B
:105488007B68DA623B681A687B689A627B68084ABC
:10549800934203D13B681A697B681A637B680122CF
:1054A8005A6100BF1437BD465DF8047B704700BFE2
:1054B800000001400004004000080040000C0040CB
:1054C80000400140004401400048014080B487B0DA
:1054D80000AF786039607B681B6A23F001027B6843
:1054E8001A627B681B6A7B617B685B683B617B68CF
:1054F8009B69FB60FB6823F07003FB60FB6823F08B
:105508000303FB603B681B68FA681343FB607B6915
:1055180023F002037B613B689B687A6913437B61D4
:105528007B681C4A93420CD17B6923F008037B619A
:105538003B68DB687A6913437B617B6923F004036A
:105548007B617B68134A934211D13B6923F48073D2
:105558003B613B6923F400733B613B685B693A69D3
:1055680013433B613B689B693A6913433B617B6822
:105578003A695A607B68FA689A613B685A687B683E
:105588005A637B687A691A6200BF1C37BD465DF8AA
:10559800047B70470000014080B487B000AF78609A
:1055A80039607B681B6A23F010027B681A627B688B
:1055B8001B6A7B617B685B683B617B689B69FB60FE
:1055C800FB6823F4E043FB60FB6823F44073FB6053
:1055D8003B681B681B02FA681343FB607B6923F076
:1055E80020037B613B689B681B017A6913437B61DD
:1055F8007B681E4A93420DD17B6923F080037B614F
:105608003B68DB681B017A6913437B617B6923F084
:1056180040037B617B68154A934213D13B6923F4AD
:1056280080633B613B6923F400633B613B685B69D2
:105638009B003A6913433B613B689B699B003A694D
:1056480013433B617B683A695A607B68FA689A61E0
:105658003B685A687B689A637B687A691A6200BFFC
:105668001C37BD465DF8047B704700BF0000014051
:1056780080B487B000AF786039607B681B6A23F418
:1056880080727B681A627B681B6A7B617B685B68D7
:105698003B617B68DB69FB60FB6823F07003FB60A0
:1056A800FB6823F00303FB603B681B68FA6813433D
:1056B800FB607B6923F400737B613B689B681B027A
:1056C8007A6913437B617B681D4A93420DD17B69DC
:1056D80023F400637B613B68DB681B027A69134330
:1056E8007B617B6923F480637B617B68144A934206
:1056F80013D13B6923F480533B613B6923F4005386
:105708003B613B685B691B013A6913433B613B683A
:105718009B691B013A6913433B617B683A695A608C
:105728007B68FA68DA613B685A687B68DA637B6889
:105738007A691A6200BF1C37BD465DF8047B704762
:105748000000014080B487B000AF786039607B68A2
:105758001B6A23F480527B681A627B681B6A3B6170
:105768007B685B687B617B68DB69FB60FB6823F4B3
:10577800E043FB60FB6823F44073FB603B681B68F5
:105788001B02FA681343FB603B6923F400533B6137
:105798003B689B681B033A6913433B617B68104A6B
:1057A800934209D17B6923F480437B613B685B6941
:1057B8009B017A6913437B617B687A695A607B68CD
:1057C800FA68DA613B685A687B681A647B683A69E8
:1057D8001A6200BF1C37BD465DF8047B704700BFE6
:1057E8000000014080B487B000AFF860B9607A600B
:1057F800FB681B6A7B61FB681B6A23F00102FB687C
:105808001A62FB689B693B613B6923F0F0033B61CB
:105818007B681B013A6913433B617B6923F00A03E8
:105828007B617A69BB6813437B61FB683A699A615B
:10583800FB687A691A6200BF1C37BD465DF8047BB5
:10584800704780B487B000AFF860B9607A60FB68D1
:105858001B6A23F01002FB681A62FB689B697B6174
:10586800FB681B6A3B617B6923F470437B617B683F
:105878001B037A6913437B613B6923F0A0033B61F7
:10588800BB681B013A6913433B61FB687A699A61FB
:10589800FB683A691A6200BF1C37BD465DF8047B95
:1058A800704780B485B000AF786039607B689B68CA
:1058B800FB60FB6823F07003FB603A68FB681343E6
:1058C80043F00703FB607B68FA689A6000BF1437EF
:1058D800BD465DF8047B704780B487B000AFF860C0
:1058E800B9607A603B60FB689B687B617B6923F4E5
:1058F8007F437B613B681A027B681A43BB6813438A
:105908007A6913437B61FB687A699A6000BF1C3728
:10591800BD465DF8047B704780B487B000AFF8607F
:10592800B9607A60BB6803F01F03012202FA03F32F
:105938007B61FB681A6A7B69DB431A40FB681A6261
:10594800FB681A6ABB6803F01F03796801FA03F35E
:105958001A43FB681A6200BF1C37BD465DF8047B1A
:105968007047000080B485B000AF786039607B680C
:1059780093F83C30012B01D1022350E07B680122CF
:1059880083F83C207B68022283F83D207B681B68F3
:105998005B68FB607B681B689B68BB60FB6823F0E7
:1059A8007003FB603B681B68FA681343FB607B6805
:1059B8001B68FA685A607B681B681C4A934218D0B7
:1059C8007B681B68B3F1804F13D07B681B68184A4B
:1059D80093420ED07B681B68164A934209D07B68B5
:1059E8001B68154A934204D07B681B68134A93428C
:1059F8000CD1BB6823F08003BB603B685B68BA6866
:105A08001343BB607B681B68BA689A607B68012295
:105A180083F83D207B68002283F83C200023184649
:105A28001437BD465DF8047B704700BF0000014095
:105A38000004004000080040000C00400040014005
:105A480080B483B000AF786000BF0C37BD465DF806
:105A5800047B704780B483B000AF786000BF0C3718
:105A6800BD465DF8047B704784B080B584B000AF54
:105A7800786007F11C0080E80E003B6B012B22D1F7
:105A88007B689B6B23F480327B689A637B68DB6856
:105A980023F4840323F040037A68D3607B68DB68CF
:105AA80023F440127B68DA60FB6C012B05D17B681C
:105AB800DB6843F480127B68DA60786800F0C0F92C
:105AC8000346FB731AE07B68DB6843F040027B689F
